S00B000044494F2E737265633D
S11300000C942A000C943C000C943C000C943C008E
S11300100C943C000C943C000C943C000C943C006C
S11300200C943C000C943C000C943C000C943C005C
S11300300C943C000C943C000C943C000C943C004C
S11300400C943C000C943C000C943C000C943C003C
S11300500C943C0011241FBECFE5D8E0DEBFCDBF19
S113006020E0A0E6B0E001C01D92A537B207E1F799
S11300700E946E010C94D2010C940000DC011196D4
S1130080EC91119720ED2E0F2C30B0F4F0E020818C
S11300904C9181E090E0042E02C0880F991F0A94CD
S11300A0E2F730E08223932302C0959587954A9521
S11300B0E2F78093610002C01092600080916100B9
S11300C00895DC011196EC91119720ED2E0F2C3040
S11300D020F5623010F5613079F4F0E0408121E0E0
S11300E030E0B9010C9002C0660F771F0A94E2F762
S11300F0CB01842B80830895F0E0408121E030E03F
S1130100B901DC010C9002C0660F771F0A94E2F774
S1130110CB01809584238083089581E080936000DF
S113012008959C01205331092C30310528F4FC0139
S113013080818093610003C082E08093600080919D
S1130140610008959C01205331092C30310558F485
S1130150623048F4613021F42FEFFC0120830895CC
S1130160FC011082089583E0809360000895DC010F
S11301701596ED91FC9116979F01205331092C306F
S1130180310510F5408114962C9114978D919D9111
S11301900D90BC91A02D022E04C0880F991FAA1F98
S11301A0BB1F0A94D2F750E060E070E084239523EB
S11301B0A623B72304C0B695A795979587952A9546
S11301C0D2F78093610003C084E080936000809143
S11301D061000895EF92FF920F931F93CF93DF93E3
S11301E06230C8F5DC011596ED91FC9116979F01DC
S11301F0205331092C30310570F56130A9F4208188
S11302004D915D916D917C917A018B01EC010C8093
S113021004C0EE0CFF1C001F111F0A94D2F7D80172
S1130220C701822B80831AC02081DC014D915D912E
S11302306D917C917A018B01EC010C8004C0EE0C71
S1130240FF1C001F111F0A94D2F7D801C701809523
S11302508223808303C085E080936000DF91CF9187
S11302601F910F91FF90EF900895DC011196EC918E
S1130270119780ED8E0F8C3040F5F0E090814C9119
S113028021E030E0042E02C0220F331F0A94E2F76B
S1130290892F90E08223932302C0959587954A95F0
S11302A0E2F780936100811107C08081282B2083AD
S11302B081E0809361000CC0813051F480812095ED
S11302C0282320831092610003C081E180936000A1
S11302D0809161000895809160000895ECE6F0E05B
S11302E088E3818383E08083EAE6F0E099E3918305
S11302F08083E3E6F0E046E050E060E070E04083B5
S113030051836283738381E0848329E330E03683FD
S11303102583EEE6F0E04083518362837383848314
S113032088E390E0968385831ABA8FEF87BB8AE6C9
S113033090E00E943E008093620061E08CE690E0D1
S11303400E94610060E08CE690E00E94610089E315
S113035090E00E9491008093620061E088E390E065
S11303600E94A20060E088E390E00E94A20083E67D
S113037090E00E94B7008093620061E08EE690E016
S11303800E94EA0060E08EE690E00E94EA008CE6BB
S113039090E00E943501809362000E946B0180937B
S10B03A06200C5CFF894FFCF01
S9030000FC
