:100000000C942A000C943C000C943C000C943C0092
:100010000C943C000C943C000C943C000C943C0070
:100020000C943C000C943C000C943C000C943C0060
:100030000C943C000C943C000C943C000C943C0050
:100040000C943C000C943C000C943C000C943C0040
:100050000C943C0011241FBECFE5D8E0DEBFCDBF1D
:1000600020E0A0E6B0E001C01D92AC36B207E1F797
:100070000E9474010C94C8010C940000DC011196DC
:10008000EC91119720ED2E0F2C30B8F4F0E0329760
:1000900020814C9181E090E0042E02C0880F991FCE
:1000A0000A94E2F730E08223932302C09595879566
:1000B0004A95E2F78093610002C01092600080913F
:1000C00061000895DC011196EC91119720ED2E0F3F
:1000D0002C3020F5623010F5613079F4F0E0408189
:1000E00021E030E0B9010C9002C0660F771F0A943E
:1000F000E2F7CB01842B80830895F0E0408121E07A
:1001000030E0B901DC010C9002C0660F771F0A9441
:10011000E2F7CB01809584238083089581E080936A
:10012000600008959C01205331092C30310530F4D2
:10013000FC01329780818093610003C082E080934C
:1001400060008091610008959C01205331092C309A
:10015000310558F4623048F4613021F42FEFFC018E
:1001600020830895FC011082089583E0809360004D
:100170000895FC0125813681A901405351094C3075
:10018000510510F5F90132974081FC0124818081ED
:100190009181A281B381022E04C0880F991FAA1FEA
:1001A000BB1F0A94D2F750E060E070E084239523EF
:1001B000A623B72304C0B695A795979587952A954A
:1001C000D2F78093610003C084E080936000809147
:1001D00061000895EF92FF920F931F93CF93DF93E7
:1001E0006230C8F5DC011596ED91FC9116979F01E0
:1001F000205331092C30310570F56130A9F420818C
:100200004D915D916D917C917A018B01EC010C8097
:1002100004C0EE0CFF1C001F111F0A94D2F7D80176
:10022000C701822B80831AC02081DC014D915D9132
:100230006D917C917A018B01EC010C8004C0EE0C75
:10024000FF1C001F111F0A94D2F7D801C701809527
:100250008223808303C085E080936000DF91CF918B
:100260001F910F91FF90EF900895CF93DF93DC01E2
:100270001196EC91119780ED8E0F8C3050F5F0E0D7
:10028000EF01229798814C9121E030E0042E02C0CA
:10029000220F331F0A94E2F7892F90E082239323E1
:1002A00002C0959587954A95E2F780936100811188
:1002B00007C08081282B208381E0809361000CC0DF
:1002C000813051F480812095282320831092610091
:1002D00003C081E18093600080916100DF91CF9144
:1002E0000895809160000895EAE6F0E088E3818354
:1002F00083E08083E3E6F0E086E090E0A0E0B0E019
:1003000080839183A283B38381E0848388E390E038
:10031000968385831ABA8FEF87BB8AE690E00E94A6
:100320003E008093620061E08AE690E00E946200F5
:1003300060E08AE690E00E9462008BE390E00E9419
:1003400092008093620061E088E390E00E94A40044
:1003500060E088E390E00E94A40083E690E00E94C1
:10036000B9008093620061E083E690E00E94EA00B9
:1003700060E083E690E00E94EA008AE690E00E9456
:100380003501809362000E94710180936200C5CFA5
:04039000F894FFCF0F
:00000001FF
